{
  "contractName": "Raffle",
  "abi": [
    {
      "inputs": [
        {
          "internalType": "uint256",
          "name": "BV",
          "type": "uint256"
        }
      ],
      "stateMutability": "nonpayable",
      "type": "constructor"
    },
    {
      "inputs": [],
      "name": "buyValue",
      "outputs": [
        {
          "internalType": "uint256",
          "name": "",
          "type": "uint256"
        }
      ],
      "stateMutability": "view",
      "type": "function",
      "constant": true
    },
    {
      "inputs": [],
      "name": "ids",
      "outputs": [
        {
          "internalType": "uint256",
          "name": "",
          "type": "uint256"
        }
      ],
      "stateMutability": "view",
      "type": "function",
      "constant": true
    },
    {
      "inputs": [],
      "name": "ipfsHash",
      "outputs": [
        {
          "internalType": "string",
          "name": "",
          "type": "string"
        }
      ],
      "stateMutability": "view",
      "type": "function",
      "constant": true
    },
    {
      "inputs": [],
      "name": "owner",
      "outputs": [
        {
          "internalType": "address payable",
          "name": "",
          "type": "address"
        }
      ],
      "stateMutability": "view",
      "type": "function",
      "constant": true
    },
    {
      "inputs": [],
      "name": "buyIn",
      "outputs": [],
      "stateMutability": "payable",
      "type": "function",
      "payable": true
    },
    {
      "inputs": [],
      "name": "returnFunds",
      "outputs": [],
      "stateMutability": "nonpayable",
      "type": "function"
    },
    {
      "inputs": [],
      "name": "finish",
      "outputs": [],
      "stateMutability": "nonpayable",
      "type": "function"
    }
  ],
  "bytecode": "0x608060405234801561001057600080fd5b50604051610871380380610871833981810160405281019061003291906100dd565b8060018190555060016000806101000a81548160ff02191690831515021790555033600060016101000a81548173ffffffffffffffffffffffffffffffffffffffff021916908373ffffffffffffffffffffffffffffffffffffffff16021790555060016002819055505061010a565b600080fd5b6000819050919050565b6100ba816100a7565b81146100c557600080fd5b50565b6000815190506100d7816100b1565b92915050565b6000602082840312156100f3576100f26100a2565b5b6000610101848285016100c8565b91505092915050565b610758806101196000396000f3fe6080604052600436106100705760003560e01c806398e76e061161004e57806398e76e06146100c1578063c623674f146100ec578063d56b288914610117578063e7657e151461012e57610070565b80631eb5ea2e1461007557806353aab4341461008c5780638da5cb5b14610096575b600080fd5b34801561008157600080fd5b5061008a610159565b005b610094610271565b005b3480156100a257600080fd5b506100ab610330565b6040516100b89190610510565b60405180910390f35b3480156100cd57600080fd5b506100d6610356565b6040516100e39190610544565b60405180910390f35b3480156100f857600080fd5b5061010161035c565b60405161010e91906105f8565b60405180910390f35b34801561012357600080fd5b5061012c6103ea565b005b34801561013a57600080fd5b506101436104c9565b6040516101509190610544565b60405180910390f35b600060019054906101000a900473ffffffffffffffffffffffffffffffffffffffff1673ffffffffffffffffffffffffffffffffffffffff163373ffffffffffffffffffffffffffffffffffffffff16146101b357600080fd5b6000600190505b600254811161026e576004600082815260200190815260200160002060009054906101000a900473ffffffffffffffffffffffffffffffffffffffff1673ffffffffffffffffffffffffffffffffffffffff166108fc600583815481106102245761022361061a565b5b90600052602060002001549081150290604051600060405180830381858888f1935050505015801561025a573d6000803e3d6000fd5b50808061026690610678565b9150506101ba565b50565b6001151560008054906101000a900460ff16151514801561029457506001543410155b61029d57600080fd5b3360046000600254815260200190815260200160002060006101000a81548173ffffffffffffffffffffffffffffffffffffffff021916908373ffffffffffffffffffffffffffffffffffffffff160217905550346005600254815481106103085761030761061a565b5b90600052602060002001819055506002600081548092919061032990610678565b9190505550565b600060019054906101000a900473ffffffffffffffffffffffffffffffffffffffff1681565b60015481565b60038054610369906106f0565b80601f0160208091040260200160405190810160405280929190818152602001828054610395906106f0565b80156103e25780601f106103b7576101008083540402835291602001916103e2565b820191906000526020600020905b8154815290600101906020018083116103c557829003601f168201915b505050505081565b600060019054906101000a900473ffffffffffffffffffffffffffffffffffffffff1673ffffffffffffffffffffffffffffffffffffffff163373ffffffffffffffffffffffffffffffffffffffff161461044457600080fd5b60008060006101000a81548160ff021916908315150217905550600060019054906101000a900473ffffffffffffffffffffffffffffffffffffffff1673ffffffffffffffffffffffffffffffffffffffff166108fc479081150290604051600060405180830381858888f193505050501580156104c6573d6000803e3d6000fd5b50565b60025481565b600073ffffffffffffffffffffffffffffffffffffffff82169050919050565b60006104fa826104cf565b9050919050565b61050a816104ef565b82525050565b60006020820190506105256000830184610501565b92915050565b6000819050919050565b61053e8161052b565b82525050565b60006020820190506105596000830184610535565b92915050565b600081519050919050565b600082825260208201905092915050565b60005b8381101561059957808201518184015260208101905061057e565b838111156105a8576000848401525b50505050565b6000601f19601f8301169050919050565b60006105ca8261055f565b6105d4818561056a565b93506105e481856020860161057b565b6105ed816105ae565b840191505092915050565b6000602082019050818103600083015261061281846105bf565b905092915050565b7f4e487b7100000000000000000000000000000000000000000000000000000000600052603260045260246000fd5b7f4e487b7100000000000000000000000000000000000000000000000000000000600052601160045260246000fd5b60006106838261052b565b91507fffffffffffffffffffffffffffffffffffffffffffffffffffffffffffffffff8214156106b6576106b5610649565b5b600182019050919050565b7f4e487b7100000000000000000000000000000000000000000000000000000000600052602260045260246000fd5b6000600282049050600182168061070857607f821691505b6020821081141561071c5761071b6106c1565b5b5091905056fea264697066735822122011255f581563598eb5f78996877d46d313f5c5963127ccdb1e84baa2a03f7c9d64736f6c634300080b0033",
  "immutableReferences": {},
  "source": "// SPDX-License-Identifier: GPL-3.0\r\npragma solidity >=0.7.0 <0.9.0;\r\n\r\ncontract Raffle {\r\n\r\n    bool private open;\r\n\r\n    address payable public owner;\r\n    uint public buyValue;\r\n    uint public ids;\r\n    string public ipfsHash;\r\n\r\n    mapping(uint => address payable) people;\r\n    uint[] amount;\r\n\r\n    constructor(uint BV){\r\n        buyValue = BV;\r\n        open = true;\r\n        owner = payable(msg.sender);\r\n        ids = 1;\r\n    }\r\n\r\n    function buyIn() public payable{\r\n        require(open == true && msg.value >= buyValue);\r\n        people[ids] = payable(msg.sender);\r\n        amount[ids] = msg.value;\r\n        ids++;\r\n    }\r\n\r\n    function returnFunds() public {\r\n        require(msg.sender == owner);\r\n        for(uint i = 1; i <= ids; i++){\r\n            people[i].transfer(amount[i]);\r\n        }\r\n    }\r\n\r\n    function finish() public {\r\n        require(msg.sender == owner);\r\n        open = false;\r\n        owner.transfer(address(this).balance);\r\n    }\r\n\r\n}",
  "sourcePath": "C:\\Users\\jacob\\SmartRaffle\\contracts\\raffle.sol",
  "compiler": {
    "name": "solc",
    "version": "0.8.11+commit.d7f03943.Emscripten.clang"
  },
  "schemaVersion": "3.4.4",
  "updatedAt": "2022-02-03T20:48:28.289Z",
  "networkType": "ethereum",
  "devdoc": {
    "kind": "dev",
    "methods": {},
    "version": 1
  },
  "userdoc": {
    "kind": "user",
    "methods": {},
    "version": 1
  }
}